:020000040000FA
:1000000002308A00312A000083160610831206107F
:10001000831686108312861083160611831206112A
:100020008316861183128611831606128312061216
:100030008316861283128612831606138312061302
:100040008316861383128613080083160514831201
:10005000051C3728831685148312851837288316C4
:10006000051583120519372801308D005A2883168B
:100070000514831205184928831685148312851CDC
:1000800049288316051583120519492802308D0069
:100090005A2883160514831205185A2883168514C6
:1000A000831285185A28831605158312051D5A28B0
:1000B00003308D00402A18088D01170203186328A9
:1000C00017088C006F288C0108309900970D8C0D53
:1000D00018080C0203188C008D0D990B6628080077
:1000E000160897000A3098005B200D089300160848
:1000F00097000A3098005B200C08940013089700C2
:10010000170891009108031D952883160612831283
:100110000612831686128312861283160613831222
:1001200006138316861383128613110BA7288316D2
:1001300006128312061683168612831286128316FF
:10014000061383120613831686138312861311086F
:10015000023C031DBB288316061283120612831667
:1001600086128312861683160613831206138316CD
:100170008613831286131108033C031DCF288316B0
:1001800006128312061683168612831286168316AB
:10019000061383120613831686138312861311081F
:1001A000043C031DE32883160612831206128316ED
:1001B000861283128612831606138312061783167D
:1001C0008613831286131108053C031DF728831636
:1001D000061283120616831686128312861283165F
:1001E00006138312061783168613831286131108CB
:1001F000063C031D0B298316061283120612831672
:100200008612831286168316061383120617831628
:100210008613831286131108073C031D1F298316BA
:10022000061283120616831686128312861683160A
:10023000061383120617831686138312861311087A
:10024000083C031D332983160612831206128316F7
:1002500086128312861283160613831206138316E0
:100260008613831286171108093C031D472983163C
:1002700006128312061683168612831286128316BE
:100280000613831206138316861383128617140827
:100290009700170892009208031D5E298316061026
:1002A0008312061083168610831286108316061199
:1002B000831206118316861183128611120B702980
:1002C0008316061083120614831686108312861076
:1002D0008316061183120611831686118312861166
:1002E0001208023C031D842983160610831206108F
:1002F0008316861083128614831606118312061144
:1003000083168611831286111208033C031D982957
:100310008316061083120614831686108312861421
:100320008316061183120611831686118312861115
:100330001208043C031DAC29831606108312061014
:1003400083168610831286108316061183120615F3
:1003500083168611831286111208053C031DC029DD
:1003600083160610831206148316861083128610D5
:1003700083160611831206158316861183128611C1
:100380001208063C031DD42983160610831206109A
:10039000831686108312861483160611831206159F
:1003A00083168611831286111208073C031DE82963
:1003B0008316061083120614831686108312861481
:1003C0008316061183120615831686118312861171
:1003D0001208083C031DFC29831606108312061020
:1003E0008316861083128610831606118312061157
:1003F00083168611831286151208093C031D102AE4
:100400008316061083120614831686108312861034
:100410008316061183120611831686118312861520
:1004200008001008633C031D1A2A6330900010086E
:100430009600702010089600702001309007452A21
:100440009008031D272A90011008960070201008BC
:10045000633C031C302A1008960070200130900283
:10046000492A03081F3983009001910192019301E9
:100470009401950104201008633C031C512A25288F
:100480000D089500150B452A112A1508023C031981
:10049000202A1508033C0319042083160512831231
:1004A00005121008643C031D5B2A6330900083161C
:0A04B0000512831205163B2A6300B3
:02400E00F33F7E
:00000001FF
