:020000040000FA
:10000000831686018501851583122E2030308600E7
:100010003F200D3086003F20063086003F20833091
:1000200086003F203120000023303420533034201C
:1000300056303420453034204130342023303420B1
:10004000E03034202E303420462037204620E03067
:10005000342032303420313034204B2005103F2002
:10006000080005143F20080086003F2008000130EA
:1000700086002E20833086003F2031200800851422
:100080000B30A600A60B42288510080085194628CB
:0A00900085194828080000004B28DD
:00000001FF
